{
  "contractName": "CommunityGroup",
  "abi": [
    {
      "inputs": [
        {
          "internalType": "uint256",
          "name": "",
          "type": "uint256"
        }
      ],
      "name": "groups",
      "outputs": [
        {
          "internalType": "string",
          "name": "name",
          "type": "string"
        },
        {
          "internalType": "string",
          "name": "description",
          "type": "string"
        }
      ],
      "stateMutability": "view",
      "type": "function"
    },
    {
      "inputs": [
        {
          "internalType": "string",
          "name": "_name",
          "type": "string"
        },
        {
          "internalType": "string",
          "name": "_description",
          "type": "string"
        }
      ],
      "name": "createGroup",
      "outputs": [],
      "stateMutability": "nonpayable",
      "type": "function"
    },
    {
      "inputs": [
        {
          "internalType": "uint256",
          "name": "_groupId",
          "type": "uint256"
        }
      ],
      "name": "joinGroup",
      "outputs": [],
      "stateMutability": "nonpayable",
      "type": "function"
    },
    {
      "inputs": [
        {
          "internalType": "uint256",
          "name": "_groupId",
          "type": "uint256"
        }
      ],
      "name": "getGroup",
      "outputs": [
        {
          "internalType": "string",
          "name": "",
          "type": "string"
        },
        {
          "internalType": "string",
          "name": "",
          "type": "string"
        },
        {
          "internalType": "address[]",
          "name": "",
          "type": "address[]"
        }
      ],
      "stateMutability": "view",
      "type": "function"
    }
  ],
  "bytecode": "0x608060405234801561001057600080fd5b50610e8a806100206000396000f3fe608060405234801561001057600080fd5b506004361061004c5760003560e01c80631e4a97dd1461005157806396324bd41461006d578063ceb606541461009e578063eed02e4b146100d0575b600080fd5b61006b6004803603810190610066919061099e565b6100ec565b005b61008760048036038101906100829190610a4c565b6101de565b604051610095929190610b01565b60405180910390f35b6100b860048036038101906100b39190610a4c565b610322565b6040516100c793929190610c28565b60405180910390f35b6100ea60048036038101906100e59190610a4c565b61056d565b005b60006040518060600160405280848152602001838152602001600067ffffffffffffffff8111156101205761011f610873565b5b60405190808252806020026020018201604052801561014e5781602001602082028036833780820191505090505b5081525090506000819080600181540180825580915050600190039060005260206000209060030201600090919091909150600082015181600001908051906020019061019c929190610717565b5060208201518160010190805190602001906101b9929190610717565b5060408201518160020190805190602001906101d692919061079d565b505050505050565b600081815481106101ee57600080fd5b906000526020600020906003020160009150905080600001805461021190610ca3565b80601f016020809104026020016040519081016040528092919081815260200182805461023d90610ca3565b801561028a5780601f1061025f5761010080835404028352916020019161028a565b820191906000526020600020905b81548152906001019060200180831161026d57829003601f168201915b50505050509080600101805461029f90610ca3565b80601f01602080910402602001604051908101604052809291908181526020018280546102cb90610ca3565b80156103185780601f106102ed57610100808354040283529160200191610318565b820191906000526020600020905b8154815290600101906020018083116102fb57829003601f168201915b5050505050905082565b6060806060600080549050841061036e576040517f08c379a000000000000000000000000000000000000000000000000000000000815260040161036590610d21565b60405180910390fd5b600080858154811061038357610382610d41565b5b90600052602060002090600302016040518060600160405290816000820180546103ac90610ca3565b80601f01602080910402602001604051908101604052809291908181526020018280546103d890610ca3565b80156104255780601f106103fa57610100808354040283529160200191610425565b820191906000526020600020905b81548152906001019060200180831161040857829003601f168201915b5050505050815260200160018201805461043e90610ca3565b80601f016020809104026020016040519081016040528092919081815260200182805461046a90610ca3565b80156104b75780601f1061048c576101008083540402835291602001916104b7565b820191906000526020600020905b81548152906001019060200180831161049a57829003601f168201915b505050505081526020016002820180548060200260200160405190810160405280929190818152602001828054801561054557602002820191906000526020600020905b8160009054906101000a900473ffffffffffffffffffffffffffffffffffffffff1673ffffffffffffffffffffffffffffffffffffffff16815260200190600101908083116104fb575b5050505050815250509050806000015181602001518260400151935093509350509193909250565b60008054905081106105b4576040517f08c379a00000000000000000000000000000000000000000000000000000000081526004016105ab90610d21565b60405180910390fd5b60008082815481106105c9576105c8610d41565b5b9060005260206000209060030201905060005b81600201805490508110156106ad573373ffffffffffffffffffffffffffffffffffffffff1682600201828154811061061857610617610d41565b5b9060005260206000200160009054906101000a900473ffffffffffffffffffffffffffffffffffffffff1673ffffffffffffffffffffffffffffffffffffffff16141561069a576040517f08c379a000000000000000000000000000000000000000000000000000000000815260040161069190610dbc565b60405180910390fd5b80806106a590610e0b565b9150506105dc565b5080600201339080600181540180825580915050600190039060005260206000200160009091909190916101000a81548173ffffffffffffffffffffffffffffffffffffffff021916908373ffffffffffffffffffffffffffffffffffffffff1602179055505050565b82805461072390610ca3565b90600052602060002090601f016020900481019282610745576000855561078c565b82601f1061075e57805160ff191683800117855561078c565b8280016001018555821561078c579182015b8281111561078b578251825591602001919060010190610770565b5b5090506107999190610827565b5090565b828054828255906000526020600020908101928215610816579160200282015b828111156108155782518260006101000a81548173ffffffffffffffffffffffffffffffffffffffff021916908373ffffffffffffffffffffffffffffffffffffffff160217905550916020019190600101906107bd565b5b5090506108239190610827565b5090565b5b80821115610840576000816000905550600101610828565b5090565b6000604051905090565b600080fd5b600080fd5b600080fd5b600080fd5b6000601f19601f8301169050919050565b7f4e487b7100000000000000000000000000000000000000000000000000000000600052604160045260246000fd5b6108ab82610862565b810181811067ffffffffffffffff821117156108ca576108c9610873565b5b80604052505050565b60006108dd610844565b90506108e982826108a2565b919050565b600067ffffffffffffffff82111561090957610908610873565b5b61091282610862565b9050602081019050919050565b82818337600083830152505050565b600061094161093c846108ee565b6108d3565b90508281526020810184848401111561095d5761095c61085d565b5b61096884828561091f565b509392505050565b600082601f83011261098557610984610858565b5b813561099584826020860161092e565b91505092915050565b600080604083850312156109b5576109b461084e565b5b600083013567ffffffffffffffff8111156109d3576109d2610853565b5b6109df85828601610970565b925050602083013567ffffffffffffffff811115610a00576109ff610853565b5b610a0c85828601610970565b9150509250929050565b6000819050919050565b610a2981610a16565b8114610a3457600080fd5b50565b600081359050610a4681610a20565b92915050565b600060208284031215610a6257610a6161084e565b5b6000610a7084828501610a37565b91505092915050565b600081519050919050565b600082825260208201905092915050565b60005b83811015610ab3578082015181840152602081019050610a98565b83811115610ac2576000848401525b50505050565b6000610ad382610a79565b610add8185610a84565b9350610aed818560208601610a95565b610af681610862565b840191505092915050565b60006040820190508181036000830152610b1b8185610ac8565b90508181036020830152610b2f8184610ac8565b90509392505050565b600081519050919050565b600082825260208201905092915050565b6000819050602082019050919050565b600073ffffffffffffffffffffffffffffffffffffffff82169050919050565b6000610b8f82610b64565b9050919050565b610b9f81610b84565b82525050565b6000610bb18383610b96565b60208301905092915050565b6000602082019050919050565b6000610bd582610b38565b610bdf8185610b43565b9350610bea83610b54565b8060005b83811015610c1b578151610c028882610ba5565b9750610c0d83610bbd565b925050600181019050610bee565b5085935050505092915050565b60006060820190508181036000830152610c428186610ac8565b90508181036020830152610c568185610ac8565b90508181036040830152610c6a8184610bca565b9050949350505050565b7f4e487b7100000000000000000000000000000000000000000000000000000000600052602260045260246000fd5b60006002820490506001821680610cbb57607f821691505b60208210811415610ccf57610cce610c74565b5b50919050565b7f47726f757020646f6573206e6f742065786973742e0000000000000000000000600082015250565b6000610d0b601583610a84565b9150610d1682610cd5565b602082019050919050565b60006020820190508181036000830152610d3a81610cfe565b9050919050565b7f4e487b7100000000000000000000000000000000000000000000000000000000600052603260045260246000fd5b7f416c72656164792061206d656d6265722e000000000000000000000000000000600082015250565b6000610da6601183610a84565b9150610db182610d70565b602082019050919050565b60006020820190508181036000830152610dd581610d99565b9050919050565b7f4e487b7100000000000000000000000000000000000000000000000000000000600052601160045260246000fd5b6000610e1682610a16565b91507fffffffffffffffffffffffffffffffffffffffffffffffffffffffffffffffff821415610e4957610e48610ddc565b5b60018201905091905056fea264697066735822122088fde94d3334edc72b10a9308a18ba2d6d4afbbe913d5b4dd308bea98b59b1f364736f6c634300080c0033",
  "immutableReferences": {},
  "source": "// SPDX-License-Identifier: MIT\r\npragma solidity ^0.8.0;\r\n\r\ncontract CommunityGroup {\r\n\r\n    struct Group {\r\n        string name;\r\n        string description;\r\n        address[] members;\r\n    }\r\n\r\n    Group[] public groups;\r\n\r\n    // Create a new group\r\n    function createGroup(string memory _name, string memory _description) public {\r\n        Group memory newGroup = Group({\r\n            name: _name,\r\n            description: _description,\r\n            members: new address[](0)\r\n        });\r\n        groups.push(newGroup);\r\n    }\r\n\r\n    // Join a group\r\n    function joinGroup(uint _groupId) public {\r\n        require(_groupId < groups.length, \"Group does not exist.\");\r\n        Group storage group = groups[_groupId];\r\n        \r\n        // Check that the user isn't already a member\r\n        for (uint i = 0; i < group.members.length; i++) {\r\n            require(group.members[i] != msg.sender, \"Already a member.\");\r\n        }\r\n\r\n        // Add the user to the group's members\r\n        group.members.push(msg.sender);\r\n    }\r\n\r\n    // Get group information\r\n    function getGroup(uint _groupId) public view returns (string memory, string memory, address[] memory) {\r\n        require(_groupId < groups.length, \"Group does not exist.\");\r\n        Group memory group = groups[_groupId];\r\n        return (group.name, group.description, group.members);\r\n    }\r\n    \r\n    // Additional functions like leaveGroup, deleteGroup, etc. could also be added\r\n}\r\n",
  "sourcePath": "C:\\workspace\\contracts\\CommunityGroup.sol",
  "compiler": {
    "name": "solc",
    "version": "0.8.12+commit.f00d7308.Emscripten.clang"
  },
  "schemaVersion": "3.4.16",
  "updatedAt": "2024-05-01T15:00:42.232Z",
  "devdoc": {
    "kind": "dev",
    "methods": {},
    "version": 1
  },
  "userdoc": {
    "kind": "user",
    "methods": {},
    "version": 1
  }
}