{
  "contractName": "DiscussionContract",
  "abi": [
    {
      "inputs": [
        {
          "internalType": "uint256",
          "name": "",
          "type": "uint256"
        },
        {
          "internalType": "uint256",
          "name": "",
          "type": "uint256"
        }
      ],
      "name": "comments",
      "outputs": [
        {
          "internalType": "address",
          "name": "commentator",
          "type": "address"
        },
        {
          "internalType": "string",
          "name": "content",
          "type": "string"
        },
        {
          "internalType": "uint256",
          "name": "createdAt",
          "type": "uint256"
        }
      ],
      "stateMutability": "view",
      "type": "function"
    },
    {
      "inputs": [
        {
          "internalType": "uint256",
          "name": "",
          "type": "uint256"
        }
      ],
      "name": "discussions",
      "outputs": [
        {
          "internalType": "address",
          "name": "creator",
          "type": "address"
        },
        {
          "internalType": "string",
          "name": "title",
          "type": "string"
        },
        {
          "internalType": "string",
          "name": "content",
          "type": "string"
        },
        {
          "internalType": "uint256",
          "name": "createdAt",
          "type": "uint256"
        }
      ],
      "stateMutability": "view",
      "type": "function"
    },
    {
      "inputs": [
        {
          "internalType": "string",
          "name": "title",
          "type": "string"
        },
        {
          "internalType": "string",
          "name": "content",
          "type": "string"
        }
      ],
      "name": "createDiscussion",
      "outputs": [],
      "stateMutability": "nonpayable",
      "type": "function"
    },
    {
      "inputs": [
        {
          "internalType": "uint256",
          "name": "discussionId",
          "type": "uint256"
        },
        {
          "internalType": "string",
          "name": "content",
          "type": "string"
        }
      ],
      "name": "commentOnDiscussion",
      "outputs": [],
      "stateMutability": "nonpayable",
      "type": "function"
    },
    {
      "inputs": [],
      "name": "getDiscussions",
      "outputs": [
        {
          "components": [
            {
              "internalType": "address",
              "name": "creator",
              "type": "address"
            },
            {
              "internalType": "string",
              "name": "title",
              "type": "string"
            },
            {
              "internalType": "string",
              "name": "content",
              "type": "string"
            },
            {
              "internalType": "uint256",
              "name": "createdAt",
              "type": "uint256"
            }
          ],
          "internalType": "struct DiscussionContract.Discussion[]",
          "name": "",
          "type": "tuple[]"
        }
      ],
      "stateMutability": "view",
      "type": "function"
    },
    {
      "inputs": [
        {
          "internalType": "uint256",
          "name": "discussionId",
          "type": "uint256"
        }
      ],
      "name": "getComments",
      "outputs": [
        {
          "components": [
            {
              "internalType": "address",
              "name": "commentator",
              "type": "address"
            },
            {
              "internalType": "string",
              "name": "content",
              "type": "string"
            },
            {
              "internalType": "uint256",
              "name": "createdAt",
              "type": "uint256"
            }
          ],
          "internalType": "struct DiscussionContract.Comment[]",
          "name": "",
          "type": "tuple[]"
        }
      ],
      "stateMutability": "view",
      "type": "function"
    }
  ],
  "bytecode": "0x608060405234801561001057600080fd5b5061112c806100206000396000f3fe608060405234801561001057600080fd5b50600436106100625760003560e01c8063114b6a481461006757806323edf6971461009a5780635d10b5d4146100ca5780637755a7f7146100e8578063da66868014610104578063fc6c776f14610120575b600080fd5b610081600480360381019061007c9190610a7e565b610152565b6040516100919493929190610b94565b60405180910390f35b6100b460048036038101906100af9190610a7e565b6102c2565b6040516100c19190610d61565b60405180910390f35b6100d2610426565b6040516100df9190610eaf565b60405180910390f35b61010260048036038101906100fd9190610f36565b610609565b005b61011e60048036038101906101199190610f96565b61072f565b005b61013a60048036038101906101359190611017565b6108ac565b60405161014993929190611057565b60405180910390f35b6000818154811061016257600080fd5b90600052602060002090600402016000915090508060000160009054906101000a900473ffffffffffffffffffffffffffffffffffffffff16908060010180546101ab906110c4565b80601f01602080910402602001604051908101604052809291908181526020018280546101d7906110c4565b80156102245780601f106101f957610100808354040283529160200191610224565b820191906000526020600020905b81548152906001019060200180831161020757829003601f168201915b505050505090806002018054610239906110c4565b80601f0160208091040260200160405190810160405280929190818152602001828054610265906110c4565b80156102b25780601f10610287576101008083540402835291602001916102b2565b820191906000526020600020905b81548152906001019060200180831161029557829003601f168201915b5050505050908060030154905084565b606060016000838152602001908152602001600020805480602002602001604051908101604052809291908181526020016000905b8282101561041b57838290600052602060002090600302016040518060600160405290816000820160009054906101000a900473ffffffffffffffffffffffffffffffffffffffff1673ffffffffffffffffffffffffffffffffffffffff1673ffffffffffffffffffffffffffffffffffffffff168152602001600182018054610380906110c4565b80601f01602080910402602001604051908101604052809291908181526020018280546103ac906110c4565b80156103f95780601f106103ce576101008083540402835291602001916103f9565b820191906000526020600020905b8154815290600101906020018083116103dc57829003601f168201915b50505050508152602001600282015481525050815260200190600101906102f7565b505050509050919050565b60606000805480602002602001604051908101604052809291908181526020016000905b8282101561060057838290600052602060002090600402016040518060800160405290816000820160009054906101000a900473ffffffffffffffffffffffffffffffffffffffff1673ffffffffffffffffffffffffffffffffffffffff1673ffffffffffffffffffffffffffffffffffffffff1681526020016001820180546104d3906110c4565b80601f01602080910402602001604051908101604052809291908181526020018280546104ff906110c4565b801561054c5780601f106105215761010080835404028352916020019161054c565b820191906000526020600020905b81548152906001019060200180831161052f57829003601f168201915b50505050508152602001600282018054610565906110c4565b80601f0160208091040260200160405190810160405280929190818152602001828054610591906110c4565b80156105de5780601f106105b3576101008083540402835291602001916105de565b820191906000526020600020905b8154815290600101906020018083116105c157829003601f168201915b505050505081526020016003820154815250508152602001906001019061044a565b50505050905090565b6001600084815260200190815260200160002060405180606001604052803373ffffffffffffffffffffffffffffffffffffffff16815260200184848080601f016020809104026020016040519081016040528093929190818152602001838380828437600081840152601f19601f82011690508083019250505050505050815260200142815250908060018154018082558091505060019003906000526020600020906003020160009091909190915060008201518160000160006101000a81548173ffffffffffffffffffffffffffffffffffffffff021916908373ffffffffffffffffffffffffffffffffffffffff160217905550602082015181600101908051906020019061071d92919061099b565b50604082015181600201555050505050565b600060405180608001604052803373ffffffffffffffffffffffffffffffffffffffff16815260200186868080601f016020809104026020016040519081016040528093929190818152602001838380828437600081840152601f19601f82011690508083019250505050505050815260200184848080601f016020809104026020016040519081016040528093929190818152602001838380828437600081840152601f19601f82011690508083019250505050505050815260200142815250908060018154018082558091505060019003906000526020600020906004020160009091909190915060008201518160000160006101000a81548173ffffffffffffffffffffffffffffffffffffffff021916908373ffffffffffffffffffffffffffffffffffffffff160217905550602082015181600101908051906020019061087c92919061099b565b50604082015181600201908051906020019061089992919061099b565b5060608201518160030155505050505050565b600160205281600052604060002081815481106108c857600080fd5b9060005260206000209060030201600091509150508060000160009054906101000a900473ffffffffffffffffffffffffffffffffffffffff1690806001018054610912906110c4565b80601f016020809104026020016040519081016040528092919081815260200182805461093e906110c4565b801561098b5780601f106109605761010080835404028352916020019161098b565b820191906000526020600020905b81548152906001019060200180831161096e57829003601f168201915b5050505050908060020154905083565b8280546109a7906110c4565b90600052602060002090601f0160209004810192826109c95760008555610a10565b82601f106109e257805160ff1916838001178555610a10565b82800160010185558215610a10579182015b82811115610a0f5782518255916020019190600101906109f4565b5b509050610a1d9190610a21565b5090565b5b80821115610a3a576000816000905550600101610a22565b5090565b600080fd5b600080fd5b6000819050919050565b610a5b81610a48565b8114610a6657600080fd5b50565b600081359050610a7881610a52565b92915050565b600060208284031215610a9457610a93610a3e565b5b6000610aa284828501610a69565b91505092915050565b600073ffffffffffffffffffffffffffffffffffffffff82169050919050565b6000610ad682610aab565b9050919050565b610ae681610acb565b82525050565b600081519050919050565b600082825260208201905092915050565b60005b83811015610b26578082015181840152602081019050610b0b565b83811115610b35576000848401525b50505050565b6000601f19601f8301169050919050565b6000610b5782610aec565b610b618185610af7565b9350610b71818560208601610b08565b610b7a81610b3b565b840191505092915050565b610b8e81610a48565b82525050565b6000608082019050610ba96000830187610add565b8181036020830152610bbb8186610b4c565b90508181036040830152610bcf8185610b4c565b9050610bde6060830184610b85565b95945050505050565b600081519050919050565b600082825260208201905092915050565b6000819050602082019050919050565b610c1c81610acb565b82525050565b600082825260208201905092915050565b6000610c3e82610aec565b610c488185610c22565b9350610c58818560208601610b08565b610c6181610b3b565b840191505092915050565b610c7581610a48565b82525050565b6000606083016000830151610c936000860182610c13565b5060208301518482036020860152610cab8282610c33565b9150506040830151610cc06040860182610c6c565b508091505092915050565b6000610cd78383610c7b565b905092915050565b6000602082019050919050565b6000610cf782610be7565b610d018185610bf2565b935083602082028501610d1385610c03565b8060005b85811015610d4f5784840389528151610d308582610ccb565b9450610d3b83610cdf565b925060208a01995050600181019050610d17565b50829750879550505050505092915050565b60006020820190508181036000830152610d7b8184610cec565b905092915050565b600081519050919050565b600082825260208201905092915050565b6000819050602082019050919050565b6000608083016000830151610dc76000860182610c13565b5060208301518482036020860152610ddf8282610c33565b91505060408301518482036040860152610df98282610c33565b9150506060830151610e0e6060860182610c6c565b508091505092915050565b6000610e258383610daf565b905092915050565b6000602082019050919050565b6000610e4582610d83565b610e4f8185610d8e565b935083602082028501610e6185610d9f565b8060005b85811015610e9d5784840389528151610e7e8582610e19565b9450610e8983610e2d565b925060208a01995050600181019050610e65565b50829750879550505050505092915050565b60006020820190508181036000830152610ec98184610e3a565b905092915050565b600080fd5b600080fd5b600080fd5b60008083601f840112610ef657610ef5610ed1565b5b8235905067ffffffffffffffff811115610f1357610f12610ed6565b5b602083019150836001820283011115610f2f57610f2e610edb565b5b9250929050565b600080600060408486031215610f4f57610f4e610a3e565b5b6000610f5d86828701610a69565b935050602084013567ffffffffffffffff811115610f7e57610f7d610a43565b5b610f8a86828701610ee0565b92509250509250925092565b60008060008060408587031215610fb057610faf610a3e565b5b600085013567ffffffffffffffff811115610fce57610fcd610a43565b5b610fda87828801610ee0565b9450945050602085013567ffffffffffffffff811115610ffd57610ffc610a43565b5b61100987828801610ee0565b925092505092959194509250565b6000806040838503121561102e5761102d610a3e565b5b600061103c85828601610a69565b925050602061104d85828601610a69565b9150509250929050565b600060608201905061106c6000830186610add565b818103602083015261107e8185610b4c565b905061108d6040830184610b85565b949350505050565b7f4e487b7100000000000000000000000000000000000000000000000000000000600052602260045260246000fd5b600060028204905060018216806110dc57607f821691505b602082108114156110f0576110ef611095565b5b5091905056fea2646970667358221220e7ab7486e815bf73c7e3f40a5efb921ed8393eacf6e360cae680a1cbdf4d105664736f6c634300080c0033",
  "immutableReferences": {},
  "source": "// SPDX-License-Identifier: MIT\r\npragma solidity ^0.8.0;\r\n\r\ncontract DiscussionContract {\r\n    struct Discussion {\r\n        address creator;\r\n        string title;\r\n        string content;\r\n        uint256 createdAt;\r\n    }\r\n\r\n    struct Comment {\r\n        address commentator;\r\n        string content;\r\n        uint256 createdAt;\r\n    }\r\n\r\n    Discussion[] public discussions;\r\n    mapping(uint256 => Comment[]) public comments;\r\n\r\n    function createDiscussion(string calldata title, string calldata content) external {\r\n        discussions.push(Discussion({\r\n            creator: msg.sender,\r\n            title: title,\r\n            content: content,\r\n            createdAt: block.timestamp\r\n        }));\r\n    }\r\n\r\n    function commentOnDiscussion(uint256 discussionId, string calldata content) external {\r\n        comments[discussionId].push(Comment({\r\n            commentator: msg.sender,\r\n            content: content,\r\n            createdAt: block.timestamp\r\n        }));\r\n    }\r\n\r\n    function getDiscussions() external view returns (Discussion[] memory) {\r\n        return discussions;\r\n    }\r\n\r\n    function getComments(uint256 discussionId) external view returns (Comment[] memory) {\r\n        return comments[discussionId];\r\n    }\r\n}\r\n",
  "sourcePath": "C:\\workspace\\contracts\\DiscussionContract.sol",
  "compiler": {
    "name": "solc",
    "version": "0.8.12+commit.f00d7308.Emscripten.clang"
  },
  "schemaVersion": "3.4.16",
  "updatedAt": "2024-05-01T15:00:42.236Z",
  "devdoc": {
    "kind": "dev",
    "methods": {},
    "version": 1
  },
  "userdoc": {
    "kind": "user",
    "methods": {},
    "version": 1
  }
}