{
  "contractName": "EducationalVideosContract",
  "abi": [
    {
      "inputs": [],
      "stateMutability": "nonpayable",
      "type": "constructor"
    },
    {
      "anonymous": false,
      "inputs": [
        {
          "indexed": true,
          "internalType": "address",
          "name": "user",
          "type": "address"
        },
        {
          "indexed": false,
          "internalType": "uint256",
          "name": "reward",
          "type": "uint256"
        }
      ],
      "name": "RewardGranted",
      "type": "event"
    },
    {
      "inputs": [],
      "name": "owner",
      "outputs": [
        {
          "internalType": "address",
          "name": "",
          "type": "address"
        }
      ],
      "stateMutability": "view",
      "type": "function"
    },
    {
      "inputs": [
        {
          "internalType": "address",
          "name": "",
          "type": "address"
        }
      ],
      "name": "rewards",
      "outputs": [
        {
          "internalType": "uint256",
          "name": "",
          "type": "uint256"
        }
      ],
      "stateMutability": "view",
      "type": "function"
    },
    {
      "inputs": [
        {
          "internalType": "address",
          "name": "_user",
          "type": "address"
        },
        {
          "internalType": "uint256",
          "name": "_reward",
          "type": "uint256"
        }
      ],
      "name": "rewardUser",
      "outputs": [],
      "stateMutability": "nonpayable",
      "type": "function"
    }
  ],
  "bytecode": "0x608060405234801561001057600080fd5b50336000806101000a81548173ffffffffffffffffffffffffffffffffffffffff021916908373ffffffffffffffffffffffffffffffffffffffff1602179055506105b6806100606000396000f3fe608060405234801561001057600080fd5b50600436106100415760003560e01c80630700037d146100465780638da5cb5b14610076578063e4e103dc14610094575b600080fd5b610060600480360381019061005b91906102f5565b6100b0565b60405161006d919061033b565b60405180910390f35b61007e6100c8565b60405161008b9190610365565b60405180910390f35b6100ae60048036038101906100a991906103ac565b6100ec565b005b60016020528060005260406000206000915090505481565b60008054906101000a900473ffffffffffffffffffffffffffffffffffffffff1681565b60008054906101000a900473ffffffffffffffffffffffffffffffffffffffff1673ffffffffffffffffffffffffffffffffffffffff163373ffffffffffffffffffffffffffffffffffffffff161461017a576040517f08c379a00000000000000000000000000000000000000000000000000000000081526004016101719061046f565b60405180910390fd5b600073ffffffffffffffffffffffffffffffffffffffff168273ffffffffffffffffffffffffffffffffffffffff1614156101ea576040517f08c379a00000000000000000000000000000000000000000000000000000000081526004016101e1906104db565b60405180910390fd5b80600160008473ffffffffffffffffffffffffffffffffffffffff1673ffffffffffffffffffffffffffffffffffffffff1681526020019081526020016000206000828254610239919061052a565b925050819055508173ffffffffffffffffffffffffffffffffffffffff167f6e1afd29522b0aaf986597bcc53f5fb4daae2af7cfd41d00c384ab1bdf912b2382604051610286919061033b565b60405180910390a25050565b600080fd5b600073ffffffffffffffffffffffffffffffffffffffff82169050919050565b60006102c282610297565b9050919050565b6102d2816102b7565b81146102dd57600080fd5b50565b6000813590506102ef816102c9565b92915050565b60006020828403121561030b5761030a610292565b5b6000610319848285016102e0565b91505092915050565b6000819050919050565b61033581610322565b82525050565b6000602082019050610350600083018461032c565b92915050565b61035f816102b7565b82525050565b600060208201905061037a6000830184610356565b92915050565b61038981610322565b811461039457600080fd5b50565b6000813590506103a681610380565b92915050565b600080604083850312156103c3576103c2610292565b5b60006103d1858286016102e0565b92505060206103e285828601610397565b9150509250929050565b600082825260208201905092915050565b7f4f6e6c7920746865206f776e65722063616e2063616c6c20746869732066756e60008201527f6374696f6e2e0000000000000000000000000000000000000000000000000000602082015250565b60006104596026836103ec565b9150610464826103fd565b604082019050919050565b600060208201905081810360008301526104888161044c565b9050919050565b7f496e76616c6964207573657220616464726573732e0000000000000000000000600082015250565b60006104c56015836103ec565b91506104d08261048f565b602082019050919050565b600060208201905081810360008301526104f4816104b8565b9050919050565b7f4e487b7100000000000000000000000000000000000000000000000000000000600052601160045260246000fd5b600061053582610322565b915061054083610322565b9250827fffffffffffffffffffffffffffffffffffffffffffffffffffffffffffffffff03821115610575576105746104fb565b5b82820190509291505056fea2646970667358221220da3e6de2d51f1bfb6bb4a41379c18f173ea5ab98aeb44ac7f1af371b7f12071764736f6c634300080c0033",
  "immutableReferences": {},
  "source": "// SPDX-License-Identifier: MIT\r\npragma solidity ^0.8.0;\r\n\r\ncontract EducationalVideosContract {\r\n    address public owner;\r\n    mapping(address => uint256) public rewards;\r\n\r\n    event RewardGranted(address indexed user, uint256 reward);\r\n\r\n    modifier onlyOwner() {\r\n        require(msg.sender == owner, \"Only the owner can call this function.\");\r\n        _;\r\n    }\r\n\r\n    constructor() {\r\n        owner = msg.sender;\r\n    }\r\n\r\n    function rewardUser(address _user, uint256 _reward) external onlyOwner {\r\n        require(_user != address(0), \"Invalid user address.\");\r\n        rewards[_user] += _reward;\r\n        emit RewardGranted(_user, _reward);\r\n    }\r\n\r\n    // Other functions can be added here as needed\r\n}\r\n",
  "sourcePath": "C:\\workspace\\contracts\\EducationalVideosContract.sol",
  "compiler": {
    "name": "solc",
    "version": "0.8.12+commit.f00d7308.Emscripten.clang"
  },
  "schemaVersion": "3.4.16",
  "updatedAt": "2024-05-01T15:00:42.237Z",
  "devdoc": {
    "kind": "dev",
    "methods": {},
    "version": 1
  },
  "userdoc": {
    "kind": "user",
    "methods": {},
    "version": 1
  }
}