{
  "contractName": "InteractiveCourse",
  "abi": [
    {
      "anonymous": false,
      "inputs": [
        {
          "indexed": false,
          "internalType": "address",
          "name": "user",
          "type": "address"
        },
        {
          "indexed": false,
          "internalType": "uint256",
          "name": "courseID",
          "type": "uint256"
        },
        {
          "indexed": false,
          "internalType": "uint256",
          "name": "score",
          "type": "uint256"
        }
      ],
      "name": "CourseCompleted",
      "type": "event"
    },
    {
      "inputs": [
        {
          "internalType": "uint256",
          "name": "",
          "type": "uint256"
        }
      ],
      "name": "courses",
      "outputs": [
        {
          "internalType": "uint256",
          "name": "id",
          "type": "uint256"
        },
        {
          "internalType": "string",
          "name": "name",
          "type": "string"
        },
        {
          "internalType": "uint256",
          "name": "reward",
          "type": "uint256"
        }
      ],
      "stateMutability": "view",
      "type": "function"
    },
    {
      "inputs": [
        {
          "internalType": "address",
          "name": "",
          "type": "address"
        }
      ],
      "name": "scores",
      "outputs": [
        {
          "internalType": "uint256",
          "name": "",
          "type": "uint256"
        }
      ],
      "stateMutability": "view",
      "type": "function"
    },
    {
      "inputs": [
        {
          "internalType": "string",
          "name": "_name",
          "type": "string"
        },
        {
          "internalType": "uint256",
          "name": "_reward",
          "type": "uint256"
        }
      ],
      "name": "addCourse",
      "outputs": [],
      "stateMutability": "nonpayable",
      "type": "function"
    },
    {
      "inputs": [
        {
          "internalType": "uint256",
          "name": "_courseID",
          "type": "uint256"
        },
        {
          "internalType": "uint256",
          "name": "_score",
          "type": "uint256"
        }
      ],
      "name": "completeCourse",
      "outputs": [],
      "stateMutability": "nonpayable",
      "type": "function"
    }
  ],
  "bytecode": "0x608060405234801561001057600080fd5b50610967806100206000396000f3fe608060405234801561001057600080fd5b506004361061004c5760003560e01c80630247ce571461005157806376dd110f1461006d57806396f979d21461009d5780639ceb6521146100cf575b600080fd5b61006b60048036038101906100669190610555565b6100eb565b005b6100876004803603810190610082919061060f565b61016d565b604051610094919061064b565b60405180910390f35b6100b760048036038101906100b29190610666565b610185565b6040516100c69392919061071b565b60405180910390f35b6100e960048036038101906100e49190610759565b610247565b005b60016040518060600160405280600180549050815260200184815260200183815250908060018154018082558091505060019003906000526020600020906003020160009091909190915060008201518160000155602082015181600101908051906020019061015c929190610322565b506040820151816002015550505050565b60006020528060005260406000206000915090505481565b6001818154811061019557600080fd5b90600052602060002090600302016000915090508060000154908060010180546101be906107c8565b80601f01602080910402602001604051908101604052809291908181526020018280546101ea906107c8565b80156102375780601f1061020c57610100808354040283529160200191610237565b820191906000526020600020905b81548152906001019060200180831161021a57829003601f168201915b5050505050908060020154905083565b600180549050821061028e576040517f08c379a000000000000000000000000000000000000000000000000000000000815260040161028590610846565b60405180910390fd5b806000803373ffffffffffffffffffffffffffffffffffffffff1673ffffffffffffffffffffffffffffffffffffffff16815260200190815260200160002060008282546102dc9190610895565b925050819055507f69598479254610bc37273ec300171cd231505beb1ee68d360cbd78c1bd818278338383604051610316939291906108fa565b60405180910390a15050565b82805461032e906107c8565b90600052602060002090601f0160209004810192826103505760008555610397565b82601f1061036957805160ff1916838001178555610397565b82800160010185558215610397579182015b8281111561039657825182559160200191906001019061037b565b5b5090506103a491906103a8565b5090565b5b808211156103c15760008160009055506001016103a9565b5090565b6000604051905090565b600080fd5b600080fd5b600080fd5b600080fd5b6000601f19601f8301169050919050565b7f4e487b7100000000000000000000000000000000000000000000000000000000600052604160045260246000fd5b61042c826103e3565b810181811067ffffffffffffffff8211171561044b5761044a6103f4565b5b80604052505050565b600061045e6103c5565b905061046a8282610423565b919050565b600067ffffffffffffffff82111561048a576104896103f4565b5b610493826103e3565b9050602081019050919050565b82818337600083830152505050565b60006104c26104bd8461046f565b610454565b9050828152602081018484840111156104de576104dd6103de565b5b6104e98482856104a0565b509392505050565b600082601f830112610506576105056103d9565b5b81356105168482602086016104af565b91505092915050565b6000819050919050565b6105328161051f565b811461053d57600080fd5b50565b60008135905061054f81610529565b92915050565b6000806040838503121561056c5761056b6103cf565b5b600083013567ffffffffffffffff81111561058a576105896103d4565b5b610596858286016104f1565b92505060206105a785828601610540565b9150509250929050565b600073ffffffffffffffffffffffffffffffffffffffff82169050919050565b60006105dc826105b1565b9050919050565b6105ec816105d1565b81146105f757600080fd5b50565b600081359050610609816105e3565b92915050565b600060208284031215610625576106246103cf565b5b6000610633848285016105fa565b91505092915050565b6106458161051f565b82525050565b6000602082019050610660600083018461063c565b92915050565b60006020828403121561067c5761067b6103cf565b5b600061068a84828501610540565b91505092915050565b600081519050919050565b600082825260208201905092915050565b60005b838110156106cd5780820151818401526020810190506106b2565b838111156106dc576000848401525b50505050565b60006106ed82610693565b6106f7818561069e565b93506107078185602086016106af565b610710816103e3565b840191505092915050565b6000606082019050610730600083018661063c565b818103602083015261074281856106e2565b9050610751604083018461063c565b949350505050565b600080604083850312156107705761076f6103cf565b5b600061077e85828601610540565b925050602061078f85828601610540565b9150509250929050565b7f4e487b7100000000000000000000000000000000000000000000000000000000600052602260045260246000fd5b600060028204905060018216806107e057607f821691505b602082108114156107f4576107f3610799565b5b50919050565b7f436f7572736520646f6573206e6f742065786973740000000000000000000000600082015250565b600061083060158361069e565b915061083b826107fa565b602082019050919050565b6000602082019050818103600083015261085f81610823565b9050919050565b7f4e487b7100000000000000000000000000000000000000000000000000000000600052601160045260246000fd5b60006108a08261051f565b91506108ab8361051f565b9250827fffffffffffffffffffffffffffffffffffffffffffffffffffffffffffffffff038211156108e0576108df610866565b5b828201905092915050565b6108f4816105d1565b82525050565b600060608201905061090f60008301866108eb565b61091c602083018561063c565b610929604083018461063c565b94935050505056fea264697066735822122076a1f3f57402f09c76a164e6a2f84ec79611f42bd3762fa4b1f8e4e68b0bbeba64736f6c634300080c0033",
  "immutableReferences": {},
  "source": "// SPDX-License-Identifier: MIT\r\npragma solidity ^0.8.0;\r\n\r\ncontract InteractiveCourse {\r\n    \r\n    mapping(address => uint) public scores;\r\n\r\n    // Define the course with a unique ID\r\n    struct Course {\r\n        uint id;\r\n        string name;\r\n        uint reward;\r\n    }\r\n\r\n    // A list of all courses\r\n    Course[] public courses;\r\n\r\n    // Event that is emitted when a user completes a course\r\n    event CourseCompleted(address user, uint courseID, uint score);\r\n\r\n    // Function to add a new course\r\n    function addCourse(string memory _name, uint _reward) external {\r\n        courses.push(Course({\r\n            id: courses.length,\r\n            name: _name,\r\n            reward: _reward\r\n        }));\r\n    }\r\n\r\n    // Function to mark course as completed\r\n    function completeCourse(uint _courseID, uint _score) external {\r\n        require(_courseID < courses.length, \"Course does not exist\");\r\n        scores[msg.sender] += _score;\r\n        emit CourseCompleted(msg.sender, _courseID, _score);\r\n        // Logic to award tokens or other rewards\r\n    }\r\n}\r\n",
  "sourcePath": "C:\\workspace\\contracts\\InteractiveCourse.sol",
  "compiler": {
    "name": "solc",
    "version": "0.8.12+commit.f00d7308.Emscripten.clang"
  },
  "schemaVersion": "3.4.16",
  "updatedAt": "2024-05-01T15:00:42.241Z",
  "devdoc": {
    "kind": "dev",
    "methods": {},
    "version": 1
  },
  "userdoc": {
    "kind": "user",
    "methods": {},
    "version": 1
  }
}