{
  "contractName": "UserAuth",
  "abi": [
    {
      "anonymous": false,
      "inputs": [
        {
          "indexed": false,
          "internalType": "address",
          "name": "userAddress",
          "type": "address"
        }
      ],
      "name": "PasswordChanged",
      "type": "event"
    },
    {
      "anonymous": false,
      "inputs": [
        {
          "indexed": false,
          "internalType": "address",
          "name": "userAddress",
          "type": "address"
        },
        {
          "indexed": false,
          "internalType": "string",
          "name": "email",
          "type": "string"
        }
      ],
      "name": "UserRegistered",
      "type": "event"
    },
    {
      "inputs": [
        {
          "internalType": "string",
          "name": "email",
          "type": "string"
        },
        {
          "internalType": "bytes32",
          "name": "passwordHash",
          "type": "bytes32"
        }
      ],
      "name": "registerUser",
      "outputs": [],
      "stateMutability": "nonpayable",
      "type": "function"
    },
    {
      "inputs": [
        {
          "internalType": "bytes32",
          "name": "newPasswordHash",
          "type": "bytes32"
        }
      ],
      "name": "changePassword",
      "outputs": [],
      "stateMutability": "nonpayable",
      "type": "function"
    }
  ],
  "bytecode": "0x608060405234801561001057600080fd5b50610731806100206000396000f3fe608060405234801561001057600080fd5b50600436106100365760003560e01c806368ae55631461003b578063b7a48da114610057575b600080fd5b61005560048036038101906100509190610449565b610073565b005b610071600480360381019061006c91906104a9565b6101fa565b005b6000801b6000803373ffffffffffffffffffffffffffffffffffffffff1673ffffffffffffffffffffffffffffffffffffffff16815260200190815260200160002060010154146100f9576040517f08c379a00000000000000000000000000000000000000000000000000000000081526004016100f090610533565b60405180910390fd5b604051806040016040528084848080601f016020809104026020016040519081016040528093929190818152602001838380828437600081840152601f19601f820116905080830192505050505050508152602001828152506000803373ffffffffffffffffffffffffffffffffffffffff1673ffffffffffffffffffffffffffffffffffffffff16815260200190815260200160002060008201518160000190805190602001906101ac929190610301565b50602082015181600101559050507f48cac28ad4dc618e15f4c2dd5e97751182f166de97b25618318b2112aa951a2f3384846040516101ed939291906105e1565b60405180910390a1505050565b6000801b6000803373ffffffffffffffffffffffffffffffffffffffff1673ffffffffffffffffffffffffffffffffffffffff168152602001908152602001600020600101541415610281576040517f08c379a00000000000000000000000000000000000000000000000000000000081526004016102789061065f565b60405180910390fd5b806000803373ffffffffffffffffffffffffffffffffffffffff1673ffffffffffffffffffffffffffffffffffffffff168152602001908152602001600020600101819055507f85a52c4d6d605a61db8affa2383ae4d5aeefe6f4363c35174504042b4a0ee9b6336040516102f6919061067f565b60405180910390a150565b82805461030d906106c9565b90600052602060002090601f01602090048101928261032f5760008555610376565b82601f1061034857805160ff1916838001178555610376565b82800160010185558215610376579182015b8281111561037557825182559160200191906001019061035a565b5b5090506103839190610387565b5090565b5b808211156103a0576000816000905550600101610388565b5090565b600080fd5b600080fd5b600080fd5b600080fd5b600080fd5b60008083601f8401126103d3576103d26103ae565b5b8235905067ffffffffffffffff8111156103f0576103ef6103b3565b5b60208301915083600182028301111561040c5761040b6103b8565b5b9250929050565b6000819050919050565b61042681610413565b811461043157600080fd5b50565b6000813590506104438161041d565b92915050565b600080600060408486031215610462576104616103a4565b5b600084013567ffffffffffffffff8111156104805761047f6103a9565b5b61048c868287016103bd565b9350935050602061049f86828701610434565b9150509250925092565b6000602082840312156104bf576104be6103a4565b5b60006104cd84828501610434565b91505092915050565b600082825260208201905092915050565b7f5573657220616c72656164792065786973747321000000000000000000000000600082015250565b600061051d6014836104d6565b9150610528826104e7565b602082019050919050565b6000602082019050818103600083015261054c81610510565b9050919050565b600073ffffffffffffffffffffffffffffffffffffffff82169050919050565b600061057e82610553565b9050919050565b61058e81610573565b82525050565b82818337600083830152505050565b6000601f19601f8301169050919050565b60006105c083856104d6565b93506105cd838584610594565b6105d6836105a3565b840190509392505050565b60006040820190506105f66000830186610585565b81810360208301526106098184866105b4565b9050949350505050565b7f5573657220646f6573206e6f7420657869737421000000000000000000000000600082015250565b60006106496014836104d6565b915061065482610613565b602082019050919050565b600060208201905081810360008301526106788161063c565b9050919050565b60006020820190506106946000830184610585565b92915050565b7f4e487b7100000000000000000000000000000000000000000000000000000000600052602260045260246000fd5b600060028204905060018216806106e157607f821691505b602082108114156106f5576106f461069a565b5b5091905056fea264697066735822122027976a9d35d6abe9a0f7ba0458aabe52092568b07767f1575fc15b6277598a8664736f6c634300080c0033",
  "immutableReferences": {},
  "source": "// SPDX-License-Identifier: MIT\r\npragma solidity ^0.8.0;\r\n\r\ncontract UserAuth {\r\n    // User structure\r\n    struct User {\r\n        string email;\r\n        bytes32 passwordHash;\r\n        // Add other relevant details\r\n    }\r\n\r\n    // Mapping from address to User\r\n    mapping(address => User) private users;\r\n\r\n    // Event to emit when a user is registered\r\n    event UserRegistered(address userAddress, string email);\r\n\r\n    // Event to emit when a user changes their password\r\n    event PasswordChanged(address userAddress);\r\n\r\n    // Function to register a user\r\n    function registerUser(string calldata email, bytes32 passwordHash) external {\r\n        require(users[msg.sender].passwordHash == 0, \"User already exists!\");\r\n\r\n        users[msg.sender] = User({\r\n            email: email,\r\n            passwordHash: passwordHash\r\n        });\r\n\r\n        emit UserRegistered(msg.sender, email);\r\n    }\r\n\r\n    // Function to change a user's password\r\n    function changePassword(bytes32 newPasswordHash) external {\r\n        require(users[msg.sender].passwordHash != 0, \"User does not exist!\");\r\n\r\n        users[msg.sender].passwordHash = newPasswordHash;\r\n        emit PasswordChanged(msg.sender);\r\n    }\r\n\r\n    // This is a private function to check password strength\r\n    // Solidity is not suited for string manipulation & this should be done off-chain\r\n    function isPasswordStrong(string memory password) private pure returns (bool) {\r\n        // Pseudo-code for password strength check\r\n        // This should be done in your web application, not in Solidity\r\n        return bytes(password).length >= 10; // Simplified check, just an example\r\n    }\r\n\r\n    // Add other necessary functions and modifiers as needed\r\n}\r\n",
  "sourcePath": "C:\\workspace\\contracts\\UserAuth.sol",
  "compiler": {
    "name": "solc",
    "version": "0.8.12+commit.f00d7308.Emscripten.clang"
  },
  "schemaVersion": "3.4.16",
  "updatedAt": "2024-05-01T15:00:42.242Z",
  "devdoc": {
    "kind": "dev",
    "methods": {},
    "version": 1
  },
  "userdoc": {
    "kind": "user",
    "methods": {},
    "version": 1
  }
}